{
  "_format": "hh-sol-artifact-1",
  "contractName": "test",
  "sourceName": "contracts/nagoya_hack.sol",
  "abi": [
    {
      "inputs": [],
      "stateMutability": "nonpayable",
      "type": "constructor"
    },
    {
      "anonymous": false,
      "inputs": [
        {
          "indexed": true,
          "internalType": "address",
          "name": "myAddress",
          "type": "address"
        },
        {
          "indexed": false,
          "internalType": "address",
          "name": "ownerAddress",
          "type": "address"
        },
        {
          "indexed": false,
          "internalType": "bytes32",
          "name": "fileNameHash",
          "type": "bytes32"
        },
        {
          "indexed": false,
          "internalType": "bool",
          "name": "flg",
          "type": "bool"
        }
      ],
      "name": "ApprovalFlgSet",
      "type": "event"
    },
    {
      "anonymous": false,
      "inputs": [
        {
          "indexed": true,
          "internalType": "address",
          "name": "myAddress",
          "type": "address"
        },
        {
          "indexed": false,
          "internalType": "address",
          "name": "ownerAddress",
          "type": "address"
        },
        {
          "components": [
            {
              "internalType": "bytes32",
              "name": "fileNameHash",
              "type": "bytes32"
            },
            {
              "internalType": "bytes32",
              "name": "fileContentHash",
              "type": "bytes32"
            },
            {
              "internalType": "uint256",
              "name": "timeStamp",
              "type": "uint256"
            }
          ],
          "indexed": false,
          "internalType": "struct test.File",
          "name": "fileData",
          "type": "tuple"
        },
        {
          "indexed": false,
          "internalType": "uint256",
          "name": "version",
          "type": "uint256"
        }
      ],
      "name": "FileRegistered",
      "type": "event"
    },
    {
      "inputs": [
        {
          "internalType": "bytes32",
          "name": "_fileNameHash",
          "type": "bytes32"
        },
        {
          "internalType": "bytes32",
          "name": "_fileContentHash",
          "type": "bytes32"
        },
        {
          "internalType": "address",
          "name": "_ownerAddress",
          "type": "address"
        }
      ],
      "name": "addFile",
      "outputs": [],
      "stateMutability": "nonpayable",
      "type": "function"
    },
    {
      "inputs": [
        {
          "internalType": "address",
          "name": "",
          "type": "address"
        },
        {
          "internalType": "address",
          "name": "",
          "type": "address"
        },
        {
          "internalType": "bytes32",
          "name": "",
          "type": "bytes32"
        }
      ],
      "name": "approvalFlg",
      "outputs": [
        {
          "internalType": "bool",
          "name": "",
          "type": "bool"
        }
      ],
      "stateMutability": "view",
      "type": "function"
    },
    {
      "inputs": [
        {
          "internalType": "address",
          "name": "",
          "type": "address"
        },
        {
          "internalType": "bytes32",
          "name": "",
          "type": "bytes32"
        },
        {
          "internalType": "uint256",
          "name": "",
          "type": "uint256"
        }
      ],
      "name": "approvalList",
      "outputs": [
        {
          "internalType": "address",
          "name": "",
          "type": "address"
        }
      ],
      "stateMutability": "view",
      "type": "function"
    },
    {
      "inputs": [
        {
          "internalType": "address",
          "name": "",
          "type": "address"
        },
        {
          "internalType": "bytes32",
          "name": "",
          "type": "bytes32"
        },
        {
          "internalType": "uint256",
          "name": "",
          "type": "uint256"
        }
      ],
      "name": "fileRegistry",
      "outputs": [
        {
          "internalType": "bytes32",
          "name": "fileNameHash",
          "type": "bytes32"
        },
        {
          "internalType": "bytes32",
          "name": "fileContentHash",
          "type": "bytes32"
        },
        {
          "internalType": "uint256",
          "name": "timeStamp",
          "type": "uint256"
        }
      ],
      "stateMutability": "view",
      "type": "function"
    },
    {
      "inputs": [
        {
          "internalType": "address",
          "name": "_ownerAddress",
          "type": "address"
        },
        {
          "internalType": "bytes32",
          "name": "_fileNameHash",
          "type": "bytes32"
        }
      ],
      "name": "getApprovalList",
      "outputs": [
        {
          "internalType": "address[]",
          "name": "",
          "type": "address[]"
        }
      ],
      "stateMutability": "view",
      "type": "function"
    },
    {
      "inputs": [
        {
          "internalType": "address",
          "name": "_ownerAddress",
          "type": "address"
        },
        {
          "internalType": "bytes32",
          "name": "_fileNameHash",
          "type": "bytes32"
        },
        {
          "internalType": "uint256",
          "name": "_fileVersion",
          "type": "uint256"
        }
      ],
      "name": "getFileHash",
      "outputs": [
        {
          "internalType": "bytes32",
          "name": "",
          "type": "bytes32"
        }
      ],
      "stateMutability": "view",
      "type": "function"
    },
    {
      "inputs": [
        {
          "internalType": "address",
          "name": "_ownerAddress",
          "type": "address"
        },
        {
          "internalType": "bytes32",
          "name": "_fileNameHash",
          "type": "bytes32"
        }
      ],
      "name": "getFileHistory",
      "outputs": [
        {
          "components": [
            {
              "internalType": "bytes32",
              "name": "fileNameHash",
              "type": "bytes32"
            },
            {
              "internalType": "bytes32",
              "name": "fileContentHash",
              "type": "bytes32"
            },
            {
              "internalType": "uint256",
              "name": "timeStamp",
              "type": "uint256"
            }
          ],
          "internalType": "struct test.File[]",
          "name": "",
          "type": "tuple[]"
        }
      ],
      "stateMutability": "view",
      "type": "function"
    },
    {
      "inputs": [
        {
          "internalType": "address",
          "name": "_ownerAddress",
          "type": "address"
        },
        {
          "internalType": "bytes32",
          "name": "_fileNameHash",
          "type": "bytes32"
        }
      ],
      "name": "getFileVersion",
      "outputs": [
        {
          "internalType": "uint256",
          "name": "",
          "type": "uint256"
        }
      ],
      "stateMutability": "view",
      "type": "function"
    },
    {
      "inputs": [
        {
          "internalType": "address",
          "name": "_ownerAddress",
          "type": "address"
        },
        {
          "internalType": "bytes32",
          "name": "_fileNameHash",
          "type": "bytes32"
        }
      ],
      "name": "isApproved",
      "outputs": [
        {
          "internalType": "bool",
          "name": "",
          "type": "bool"
        }
      ],
      "stateMutability": "view",
      "type": "function"
    },
    {
      "inputs": [],
      "name": "owner",
      "outputs": [
        {
          "internalType": "address",
          "name": "",
          "type": "address"
        }
      ],
      "stateMutability": "view",
      "type": "function"
    },
    {
      "inputs": [
        {
          "internalType": "address",
          "name": "ApprovalAddress",
          "type": "address"
        },
        {
          "internalType": "bytes32",
          "name": "_fileNameHash",
          "type": "bytes32"
        },
        {
          "internalType": "bool",
          "name": "ApprovalFlg",
          "type": "bool"
        }
      ],
      "name": "setApproval",
      "outputs": [],
      "stateMutability": "nonpayable",
      "type": "function"
    },
    {
      "inputs": [
        {
          "internalType": "address",
          "name": "_ownerAddress",
          "type": "address"
        },
        {
          "internalType": "bytes32",
          "name": "_fileNameHash",
          "type": "bytes32"
        },
        {
          "internalType": "bytes32",
          "name": "_inputFileContentHash",
          "type": "bytes32"
        }
      ],
      "name": "verifyFileHash",
      "outputs": [
        {
          "internalType": "bool",
          "name": "",
          "type": "bool"
        }
      ],
      "stateMutability": "view",
      "type": "function"
    }
  ],
  "bytecode": "0x608060405234801561001057600080fd5b50336000806101000a81548173ffffffffffffffffffffffffffffffffffffffff021916908373ffffffffffffffffffffffffffffffffffffffff16021790555061195a806100606000396000f3fe608060405234801561001057600080fd5b50600436106100b45760003560e01c80637341518a116100715780637341518a146101c75780638da5cb5b146101e3578063b0029ea514610201578063b19c4c6f14610231578063b6e5a4ae14610261578063d9434f2914610291576100b4565b806308fed639146100b95780630b5881e8146100e957806329e8516414610119578063384897211461014b5780633ae9cbd5146101675780636643714f14610197575b600080fd5b6100d360048036038101906100ce91906110d5565b6102c1565b6040516100e09190611130565b60405180910390f35b61010360048036038101906100fe9190611181565b61039c565b60405161011091906111e3565b60405180910390f35b610133600480360381019061012e9190611181565b6103f7565b6040516101429392919061121c565b60405180910390f35b6101656004803603810190610160919061127f565b61044b565b005b610181600480360381019061017c91906110d5565b6108a9565b60405161018e91906113e1565b60405180910390f35b6101b160048036038101906101ac9190611181565b610977565b6040516101be9190611403565b60405180910390f35b6101e160048036038101906101dc919061141e565b610aaa565b005b6101eb610da6565b6040516101f891906111e3565b60405180910390f35b61021b600480360381019061021691906110d5565b610dca565b604051610228919061152f565b60405180910390f35b61024b60048036038101906102469190611551565b610ea9565b6040516102589190611130565b60405180910390f35b61027b600480360381019061027691906110d5565b610fa2565b60405161028891906115a4565b60405180910390f35b6102ab60048036038101906102a691906115bf565b611000565b6040516102b89190611130565b60405180910390f35b60003373ffffffffffffffffffffffffffffffffffffffff168373ffffffffffffffffffffffffffffffffffffffff1614806103945750600260008473ffffffffffffffffffffffffffffffffffffffff1673ffffffffffffffffffffffffffffffffffffffff16815260200190815260200160002060003373ffffffffffffffffffffffffffffffffffffffff1673ffffffffffffffffffffffffffffffffffffffff168152602001908152602001600020600083815260200190815260200160002060009054906101000a900460ff165b905092915050565b600360205282600052604060002060205281600052604060002081815481106103c457600080fd5b90600052602060002001600092509250509054906101000a900473ffffffffffffffffffffffffffffffffffffffff1681565b6001602052826000526040600020602052816000526040600020818154811061041f57600080fd5b906000526020600020906003020160009250925050508060000154908060010154908060020154905083565b6000600360003373ffffffffffffffffffffffffffffffffffffffff1673ffffffffffffffffffffffffffffffffffffffff16815260200190815260200160002060008481526020019081526020016000208054905090506000805b82811015610641578573ffffffffffffffffffffffffffffffffffffffff16600360003373ffffffffffffffffffffffffffffffffffffffff1673ffffffffffffffffffffffffffffffffffffffff1681526020019081526020016000206000878152602001908152602001600020828154811061052857610527611612565b5b9060005260206000200160009054906101000a900473ffffffffffffffffffffffffffffffffffffffff1673ffffffffffffffffffffffffffffffffffffffff16141561062e576001915060001515841515141561062d576000600360003373ffffffffffffffffffffffffffffffffffffffff1673ffffffffffffffffffffffffffffffffffffffff168152602001908152602001600020600087815260200190815260200160002082815481106105e4576105e3611612565b5b9060005260206000200160006101000a81548173ffffffffffffffffffffffffffffffffffffffff021916908373ffffffffffffffffffffffffffffffffffffffff1602179055505b5b808061063990611670565b9150506104a7565b506000151581151514801561065a575060011515831515145b1561071157600360003373ffffffffffffffffffffffffffffffffffffffff1673ffffffffffffffffffffffffffffffffffffffff1681526020019081526020016000206000858152602001908152602001600020859080600181540180825580915050600190039060005260206000200160009091909190916101000a81548173ffffffffffffffffffffffffffffffffffffffff021916908373ffffffffffffffffffffffffffffffffffffffff1602179055505b82600260003373ffffffffffffffffffffffffffffffffffffffff1673ffffffffffffffffffffffffffffffffffffffff16815260200190815260200160002060008773ffffffffffffffffffffffffffffffffffffffff1673ffffffffffffffffffffffffffffffffffffffff168152602001908152602001600020600086815260200190815260200160002060006101000a81548160ff0219169083151502179055503373ffffffffffffffffffffffffffffffffffffffff167f35abf1a26249dc853b24d7ea8a29906c9555acc75c27b856f0b3fa21c4ac80c18686600260003373ffffffffffffffffffffffffffffffffffffffff1673ffffffffffffffffffffffffffffffffffffffff16815260200190815260200160002060008a73ffffffffffffffffffffffffffffffffffffffff1673ffffffffffffffffffffffffffffffffffffffff168152602001908152602001600020600089815260200190815260200160002060009054906101000a900460ff1660405161089a939291906116b9565b60405180910390a25050505050565b6060600160008473ffffffffffffffffffffffffffffffffffffffff1673ffffffffffffffffffffffffffffffffffffffff1681526020019081526020016000206000838152602001908152602001600020805480602002602001604051908101604052809291908181526020016000905b8282101561096b578382906000526020600020906003020160405180606001604052908160008201548152602001600182015481526020016002820154815250508152602001906001019061091b565b50505050905092915050565b600080600160008673ffffffffffffffffffffffffffffffffffffffff1673ffffffffffffffffffffffffffffffffffffffff1681526020019081526020016000206000858152602001908152602001600020805490509050600183101580156109e15750808311155b610a20576040517f08c379a0000000000000000000000000000000000000000000000000000000008152600401610a179061174d565b60405180910390fd5b600160008673ffffffffffffffffffffffffffffffffffffffff1673ffffffffffffffffffffffffffffffffffffffff1681526020019081526020016000206000858152602001908152602001600020600184610a7d919061176d565b81548110610a8e57610a8d611612565b5b9060005260206000209060030201600101549150509392505050565b8073ffffffffffffffffffffffffffffffffffffffff163373ffffffffffffffffffffffffffffffffffffffff161480610b82575060011515600260008373ffffffffffffffffffffffffffffffffffffffff1673ffffffffffffffffffffffffffffffffffffffff16815260200190815260200160002060003373ffffffffffffffffffffffffffffffffffffffff1673ffffffffffffffffffffffffffffffffffffffff168152602001908152602001600020600085815260200190815260200160002060009054906101000a900460ff161515145b610bc1576040517f08c379a0000000000000000000000000000000000000000000000000000000008152600401610bb890611813565b60405180910390fd5b60006040518060600160405280858152602001848152602001428152509050600160008373ffffffffffffffffffffffffffffffffffffffff1673ffffffffffffffffffffffffffffffffffffffff168152602001908152602001600020600085815260200190815260200160002081908060018154018082558091505060019003906000526020600020906003020160009091909190915060008201518160000155602082015181600101556040820151816002015550506000600160008473ffffffffffffffffffffffffffffffffffffffff1673ffffffffffffffffffffffffffffffffffffffff16815260200190815260200160002060008681526020019081526020016000208054905090503373ffffffffffffffffffffffffffffffffffffffff167f66268dd854fa57df40c432fe86dc93a5533cb4879b62e614fb4e1099b227949c84600160008773ffffffffffffffffffffffffffffffffffffffff1673ffffffffffffffffffffffffffffffffffffffff1681526020019081526020016000206000898152602001908152602001600020600185610d68919061176d565b81548110610d7957610d78611612565b5b906000526020600020906003020184604051610d97939291906118ed565b60405180910390a25050505050565b60008054906101000a900473ffffffffffffffffffffffffffffffffffffffff1681565b6060600360008473ffffffffffffffffffffffffffffffffffffffff1673ffffffffffffffffffffffffffffffffffffffff1681526020019081526020016000206000838152602001908152602001600020805480602002602001604051908101604052809291908181526020018280548015610e9c57602002820191906000526020600020905b8160009054906101000a900473ffffffffffffffffffffffffffffffffffffffff1673ffffffffffffffffffffffffffffffffffffffff1681526020019060010190808311610e52575b5050505050905092915050565b600080600160008673ffffffffffffffffffffffffffffffffffffffff1673ffffffffffffffffffffffffffffffffffffffff16815260200190815260200160002060008581526020019081526020016000208054905090506000811415610f15576000915050610f9b565b82600160008773ffffffffffffffffffffffffffffffffffffffff1673ffffffffffffffffffffffffffffffffffffffff1681526020019081526020016000206000868152602001908152602001600020600183610f73919061176d565b81548110610f8457610f83611612565b5b906000526020600020906003020160010154149150505b9392505050565b6000600160008473ffffffffffffffffffffffffffffffffffffffff1673ffffffffffffffffffffffffffffffffffffffff168152602001908152602001600020600083815260200190815260200160002080549050905092915050565b6002602052826000526040600020602052816000526040600020602052806000526040600020600092509250509054906101000a900460ff1681565b600080fd5b600073ffffffffffffffffffffffffffffffffffffffff82169050919050565b600061106c82611041565b9050919050565b61107c81611061565b811461108757600080fd5b50565b60008135905061109981611073565b92915050565b6000819050919050565b6110b28161109f565b81146110bd57600080fd5b50565b6000813590506110cf816110a9565b92915050565b600080604083850312156110ec576110eb61103c565b5b60006110fa8582860161108a565b925050602061110b858286016110c0565b9150509250929050565b60008115159050919050565b61112a81611115565b82525050565b60006020820190506111456000830184611121565b92915050565b6000819050919050565b61115e8161114b565b811461116957600080fd5b50565b60008135905061117b81611155565b92915050565b60008060006060848603121561119a5761119961103c565b5b60006111a88682870161108a565b93505060206111b9868287016110c0565b92505060406111ca8682870161116c565b9150509250925092565b6111dd81611061565b82525050565b60006020820190506111f860008301846111d4565b92915050565b6112078161109f565b82525050565b6112168161114b565b82525050565b600060608201905061123160008301866111fe565b61123e60208301856111fe565b61124b604083018461120d565b949350505050565b61125c81611115565b811461126757600080fd5b50565b60008135905061127981611253565b92915050565b6000806000606084860312156112985761129761103c565b5b60006112a68682870161108a565b93505060206112b7868287016110c0565b92505060406112c88682870161126a565b9150509250925092565b600081519050919050565b600082825260208201905092915050565b6000819050602082019050919050565b6113078161109f565b82525050565b6113168161114b565b82525050565b60608201600082015161133260008501826112fe565b50602082015161134560208501826112fe565b506040820151611358604085018261130d565b50505050565b600061136a838361131c565b60608301905092915050565b6000602082019050919050565b600061138e826112d2565b61139881856112dd565b93506113a3836112ee565b8060005b838110156113d45781516113bb888261135e565b97506113c683611376565b9250506001810190506113a7565b5085935050505092915050565b600060208201905081810360008301526113fb8184611383565b905092915050565b600060208201905061141860008301846111fe565b92915050565b6000806000606084860312156114375761143661103c565b5b6000611445868287016110c0565b9350506020611456868287016110c0565b92505060406114678682870161108a565b9150509250925092565b600081519050919050565b600082825260208201905092915050565b6000819050602082019050919050565b6114a681611061565b82525050565b60006114b8838361149d565b60208301905092915050565b6000602082019050919050565b60006114dc82611471565b6114e6818561147c565b93506114f18361148d565b8060005b8381101561152257815161150988826114ac565b9750611514836114c4565b9250506001810190506114f5565b5085935050505092915050565b6000602082019050818103600083015261154981846114d1565b905092915050565b60008060006060848603121561156a5761156961103c565b5b60006115788682870161108a565b9350506020611589868287016110c0565b925050604061159a868287016110c0565b9150509250925092565b60006020820190506115b9600083018461120d565b92915050565b6000806000606084860312156115d8576115d761103c565b5b60006115e68682870161108a565b93505060206115f78682870161108a565b9250506040611608868287016110c0565b9150509250925092565b7f4e487b7100000000000000000000000000000000000000000000000000000000600052603260045260246000fd5b7f4e487b7100000000000000000000000000000000000000000000000000000000600052601160045260246000fd5b600061167b8261114b565b91507fffffffffffffffffffffffffffffffffffffffffffffffffffffffffffffffff8214156116ae576116ad611641565b5b600182019050919050565b60006060820190506116ce60008301866111d4565b6116db60208301856111fe565b6116e86040830184611121565b949350505050565b600082825260208201905092915050565b7f646f6573206e6f74206578697374000000000000000000000000000000000000600082015250565b6000611737600e836116f0565b915061174282611701565b602082019050919050565b600060208201905081810360008301526117668161172a565b9050919050565b60006117788261114b565b91506117838361114b565b92508282101561179657611795611641565b5b828203905092915050565b7f596f7520646f2774206861766520746865207065726d697373696f6e20746f2060008201527f75706461746520746869732066696c652e000000000000000000000000000000602082015250565b60006117fd6031836116f0565b9150611808826117a1565b604082019050919050565b6000602082019050818103600083015261182c816117f0565b9050919050565b60008160001c9050919050565b6000819050919050565b600061185d61185883611833565b611840565b9050919050565b6000819050919050565b600061188161187c83611833565b611864565b9050919050565b60608201600080830154905061189d8161184a565b6118aa60008601826112fe565b50600183015490506118bb8161184a565b6118c860208601826112fe565b50600283015490506118d98161186e565b6118e6604086018261130d565b5050505050565b600060a08201905061190260008301866111d4565b61190f6020830185611888565b61191c608083018461120d565b94935050505056fea26469706673582212205fa7fc246b4180b4eb16a5578c7f57991ba88a51911ab489bd5c0c75ccfc8e3f64736f6c63430008090033",
  "linkReferences": {},
  "deployedLinkReferences": {}
}