{
  "_format": "hh-sol-artifact-1",
  "contractName": "Document_Checker",
  "sourceName": "contracts/nagoya_hack.sol",
  "abi": [
    {
      "inputs": [],
      "stateMutability": "nonpayable",
      "type": "constructor"
    },
    {
      "anonymous": false,
      "inputs": [
        {
          "indexed": true,
          "internalType": "address",
          "name": "myAddress",
          "type": "address"
        },
        {
          "indexed": false,
          "internalType": "address",
          "name": "ownerAddress",
          "type": "address"
        },
        {
          "indexed": false,
          "internalType": "bytes32",
          "name": "fileNameHash",
          "type": "bytes32"
        },
        {
          "indexed": false,
          "internalType": "bool",
          "name": "flg",
          "type": "bool"
        }
      ],
      "name": "ApprovalFlgSet",
      "type": "event"
    },
    {
      "anonymous": false,
      "inputs": [
        {
          "indexed": true,
          "internalType": "address",
          "name": "myAddress",
          "type": "address"
        },
        {
          "indexed": false,
          "internalType": "address",
          "name": "ownerAddress",
          "type": "address"
        },
        {
          "indexed": false,
          "internalType": "bytes32",
          "name": "fileNameHash",
          "type": "bytes32"
        },
        {
          "indexed": false,
          "internalType": "bool",
          "name": "flg",
          "type": "bool"
        }
      ],
      "name": "ApproverFlgSet",
      "type": "event"
    },
    {
      "anonymous": false,
      "inputs": [
        {
          "indexed": true,
          "internalType": "address",
          "name": "myAddress",
          "type": "address"
        },
        {
          "indexed": false,
          "internalType": "address",
          "name": "ownerAddress",
          "type": "address"
        },
        {
          "components": [
            {
              "internalType": "bytes32",
              "name": "fileNameHash",
              "type": "bytes32"
            },
            {
              "internalType": "bytes32",
              "name": "fileContentHash",
              "type": "bytes32"
            },
            {
              "internalType": "uint256",
              "name": "timeStamp",
              "type": "uint256"
            },
            {
              "internalType": "address",
              "name": "approver",
              "type": "address"
            },
            {
              "internalType": "bool",
              "name": "isApprovedFlg",
              "type": "bool"
            }
          ],
          "indexed": false,
          "internalType": "struct Document_Checker.File",
          "name": "fileData",
          "type": "tuple"
        },
        {
          "indexed": false,
          "internalType": "uint256",
          "name": "version",
          "type": "uint256"
        },
        {
          "indexed": false,
          "internalType": "address",
          "name": "approverAddress",
          "type": "address"
        },
        {
          "indexed": false,
          "internalType": "bool",
          "name": "flg",
          "type": "bool"
        }
      ],
      "name": "FileRegistered",
      "type": "event"
    },
    {
      "inputs": [
        {
          "internalType": "bytes32",
          "name": "_fileNameHash",
          "type": "bytes32"
        },
        {
          "internalType": "bytes32",
          "name": "_fileContentHash",
          "type": "bytes32"
        },
        {
          "internalType": "address",
          "name": "_ownerAddress",
          "type": "address"
        },
        {
          "internalType": "address",
          "name": "approverAddress",
          "type": "address"
        }
      ],
      "name": "addFile",
      "outputs": [],
      "stateMutability": "nonpayable",
      "type": "function"
    },
    {
      "inputs": [
        {
          "internalType": "address",
          "name": "",
          "type": "address"
        },
        {
          "internalType": "address",
          "name": "",
          "type": "address"
        },
        {
          "internalType": "bytes32",
          "name": "",
          "type": "bytes32"
        }
      ],
      "name": "approvalFlg",
      "outputs": [
        {
          "internalType": "bool",
          "name": "",
          "type": "bool"
        }
      ],
      "stateMutability": "view",
      "type": "function"
    },
    {
      "inputs": [
        {
          "internalType": "address",
          "name": "",
          "type": "address"
        },
        {
          "internalType": "bytes32",
          "name": "",
          "type": "bytes32"
        },
        {
          "internalType": "uint256",
          "name": "",
          "type": "uint256"
        }
      ],
      "name": "approvalList",
      "outputs": [
        {
          "internalType": "address",
          "name": "",
          "type": "address"
        }
      ],
      "stateMutability": "view",
      "type": "function"
    },
    {
      "inputs": [
        {
          "internalType": "address",
          "name": "",
          "type": "address"
        },
        {
          "internalType": "bytes32",
          "name": "",
          "type": "bytes32"
        },
        {
          "internalType": "uint256",
          "name": "",
          "type": "uint256"
        }
      ],
      "name": "fileRegistry",
      "outputs": [
        {
          "internalType": "bytes32",
          "name": "fileNameHash",
          "type": "bytes32"
        },
        {
          "internalType": "bytes32",
          "name": "fileContentHash",
          "type": "bytes32"
        },
        {
          "internalType": "uint256",
          "name": "timeStamp",
          "type": "uint256"
        },
        {
          "internalType": "address",
          "name": "approver",
          "type": "address"
        },
        {
          "internalType": "bool",
          "name": "isApprovedFlg",
          "type": "bool"
        }
      ],
      "stateMutability": "view",
      "type": "function"
    },
    {
      "inputs": [
        {
          "internalType": "address",
          "name": "_ownerAddress",
          "type": "address"
        },
        {
          "internalType": "bytes32",
          "name": "_fileNameHash",
          "type": "bytes32"
        }
      ],
      "name": "getApprovalList",
      "outputs": [
        {
          "internalType": "address[]",
          "name": "",
          "type": "address[]"
        }
      ],
      "stateMutability": "view",
      "type": "function"
    },
    {
      "inputs": [
        {
          "internalType": "address",
          "name": "_ownerAddress",
          "type": "address"
        },
        {
          "internalType": "bytes32",
          "name": "_fileNameHash",
          "type": "bytes32"
        },
        {
          "internalType": "uint256",
          "name": "_fileVersion",
          "type": "uint256"
        }
      ],
      "name": "getFileHash",
      "outputs": [
        {
          "internalType": "bytes32",
          "name": "",
          "type": "bytes32"
        }
      ],
      "stateMutability": "view",
      "type": "function"
    },
    {
      "inputs": [
        {
          "internalType": "address",
          "name": "_ownerAddress",
          "type": "address"
        },
        {
          "internalType": "bytes32",
          "name": "_fileNameHash",
          "type": "bytes32"
        }
      ],
      "name": "getFileHistory",
      "outputs": [
        {
          "components": [
            {
              "internalType": "bytes32",
              "name": "fileNameHash",
              "type": "bytes32"
            },
            {
              "internalType": "bytes32",
              "name": "fileContentHash",
              "type": "bytes32"
            },
            {
              "internalType": "uint256",
              "name": "timeStamp",
              "type": "uint256"
            },
            {
              "internalType": "address",
              "name": "approver",
              "type": "address"
            },
            {
              "internalType": "bool",
              "name": "isApprovedFlg",
              "type": "bool"
            }
          ],
          "internalType": "struct Document_Checker.File[]",
          "name": "",
          "type": "tuple[]"
        }
      ],
      "stateMutability": "view",
      "type": "function"
    },
    {
      "inputs": [
        {
          "internalType": "address",
          "name": "_ownerAddress",
          "type": "address"
        },
        {
          "internalType": "bytes32",
          "name": "_fileNameHash",
          "type": "bytes32"
        }
      ],
      "name": "getFileVersion",
      "outputs": [
        {
          "internalType": "uint256",
          "name": "",
          "type": "uint256"
        }
      ],
      "stateMutability": "view",
      "type": "function"
    },
    {
      "inputs": [
        {
          "internalType": "address",
          "name": "_ownerAddress",
          "type": "address"
        },
        {
          "internalType": "bytes32",
          "name": "_fileNameHash",
          "type": "bytes32"
        }
      ],
      "name": "isApproved",
      "outputs": [
        {
          "internalType": "bool",
          "name": "",
          "type": "bool"
        }
      ],
      "stateMutability": "view",
      "type": "function"
    },
    {
      "inputs": [],
      "name": "owner",
      "outputs": [
        {
          "internalType": "address",
          "name": "",
          "type": "address"
        }
      ],
      "stateMutability": "view",
      "type": "function"
    },
    {
      "inputs": [
        {
          "internalType": "address",
          "name": "ApprovalAddress",
          "type": "address"
        },
        {
          "internalType": "bytes32",
          "name": "_fileNameHash",
          "type": "bytes32"
        },
        {
          "internalType": "bool",
          "name": "ApprovalFlg",
          "type": "bool"
        }
      ],
      "name": "setApproval",
      "outputs": [],
      "stateMutability": "nonpayable",
      "type": "function"
    },
    {
      "inputs": [
        {
          "internalType": "address",
          "name": "_ownerAddress",
          "type": "address"
        },
        {
          "internalType": "bytes32",
          "name": "_fileNameHash",
          "type": "bytes32"
        }
      ],
      "name": "setApproverFlg",
      "outputs": [],
      "stateMutability": "nonpayable",
      "type": "function"
    },
    {
      "inputs": [
        {
          "internalType": "address",
          "name": "_ownerAddress",
          "type": "address"
        },
        {
          "internalType": "bytes32",
          "name": "_fileNameHash",
          "type": "bytes32"
        },
        {
          "internalType": "bytes32",
          "name": "_inputFileContentHash",
          "type": "bytes32"
        }
      ],
      "name": "verifyFileHash",
      "outputs": [
        {
          "internalType": "bool",
          "name": "",
          "type": "bool"
        }
      ],
      "stateMutability": "view",
      "type": "function"
    }
  ],
  "bytecode": "0x608060405234801561001057600080fd5b50336000806101000a81548173ffffffffffffffffffffffffffffffffffffffff021916908373ffffffffffffffffffffffffffffffffffffffff1602179055506121f8806100606000396000f3fe608060405234801561001057600080fd5b50600436106100cf5760003560e01c80633ae9cbd51161008c578063b0029ea511610066578063b0029ea51461023a578063b19c4c6f1461026a578063b6e5a4ae1461029a578063d9434f29146102ca576100cf565b80633ae9cbd5146101bc5780636643714f146101ec5780638da5cb5b1461021c576100cf565b806308fed639146100d45780630b5881e814610104578063202b9def1461013457806329e851641461015057806335c740771461018457806338489721146101a0575b600080fd5b6100ee60048036038101906100e99190611775565b6102fa565b6040516100fb91906117d0565b60405180910390f35b61011e60048036038101906101199190611821565b6103d5565b60405161012b9190611883565b60405180910390f35b61014e6004803603810190610149919061189e565b610430565b005b61016a60048036038101906101659190611821565b6108e8565b60405161017b959493929190611923565b60405180910390f35b61019e60048036038101906101999190611775565b610975565b005b6101ba60048036038101906101b591906119a2565b610d76565b005b6101d660048036038101906101d19190611775565b6111d4565b6040516101e39190611b48565b60405180910390f35b61020660048036038101906102019190611821565b611313565b6040516102139190611b6a565b60405180910390f35b610224611446565b6040516102319190611883565b60405180910390f35b610254600480360381019061024f9190611775565b61146a565b6040516102619190611c34565b60405180910390f35b610284600480360381019061027f9190611c56565b611549565b60405161029191906117d0565b60405180910390f35b6102b460048036038101906102af9190611775565b611642565b6040516102c19190611ca9565b60405180910390f35b6102e460048036038101906102df9190611cc4565b6116a0565b6040516102f191906117d0565b60405180910390f35b60003373ffffffffffffffffffffffffffffffffffffffff168373ffffffffffffffffffffffffffffffffffffffff1614806103cd5750600260008473ffffffffffffffffffffffffffffffffffffffff1673ffffffffffffffffffffffffffffffffffffffff16815260200190815260200160002060003373ffffffffffffffffffffffffffffffffffffffff1673ffffffffffffffffffffffffffffffffffffffff168152602001908152602001600020600083815260200190815260200160002060009054906101000a900460ff165b905092915050565b600360205282600052604060002060205281600052604060002081815481106103fd57600080fd5b90600052602060002001600092509250509054906101000a900473ffffffffffffffffffffffffffffffffffffffff1681565b8173ffffffffffffffffffffffffffffffffffffffff163373ffffffffffffffffffffffffffffffffffffffff161480610508575060011515600260008473ffffffffffffffffffffffffffffffffffffffff1673ffffffffffffffffffffffffffffffffffffffff16815260200190815260200160002060003373ffffffffffffffffffffffffffffffffffffffff1673ffffffffffffffffffffffffffffffffffffffff168152602001908152602001600020600086815260200190815260200160002060009054906101000a900460ff161515145b610547576040517f08c379a000000000000000000000000000000000000000000000000000000000815260040161053e90611d9a565b60405180910390fd5b60006040518060a001604052808681526020018581526020014281526020018373ffffffffffffffffffffffffffffffffffffffff168152602001600015158152509050600160008473ffffffffffffffffffffffffffffffffffffffff1673ffffffffffffffffffffffffffffffffffffffff168152602001908152602001600020600086815260200190815260200160002081908060018154018082558091505060019003906000526020600020906004020160009091909190915060008201518160000155602082015181600101556040820151816002015560608201518160030160006101000a81548173ffffffffffffffffffffffffffffffffffffffff021916908373ffffffffffffffffffffffffffffffffffffffff16021790555060808201518160030160146101000a81548160ff02191690831515021790555050506000600160008573ffffffffffffffffffffffffffffffffffffffff1673ffffffffffffffffffffffffffffffffffffffff16815260200190815260200160002060008781526020019081526020016000208054905090503373ffffffffffffffffffffffffffffffffffffffff167fa7d5fa6286d5717c5578cdab8d7375d66223693ea46581a476afded2fc8fa72285600160008873ffffffffffffffffffffffffffffffffffffffff1673ffffffffffffffffffffffffffffffffffffffff16815260200190815260200160002060008a815260200190815260200160002060018561077a9190611de9565b8154811061078b5761078a611e1d565b5b906000526020600020906004020184600160008a73ffffffffffffffffffffffffffffffffffffffff1673ffffffffffffffffffffffffffffffffffffffff16815260200190815260200160002060008c81526020019081526020016000206001876107f79190611de9565b8154811061080857610807611e1d565b5b906000526020600020906004020160030160009054906101000a900473ffffffffffffffffffffffffffffffffffffffff16600160008b73ffffffffffffffffffffffffffffffffffffffff1673ffffffffffffffffffffffffffffffffffffffff16815260200190815260200160002060008d81526020019081526020016000206001886108979190611de9565b815481106108a8576108a7611e1d565b5b906000526020600020906004020160030160149054906101000a900460ff166040516108d8959493929190611fa9565b60405180910390a2505050505050565b6001602052826000526040600020602052816000526040600020818154811061091057600080fd5b906000526020600020906004020160009250925050508060000154908060010154908060020154908060030160009054906101000a900473ffffffffffffffffffffffffffffffffffffffff16908060030160149054906101000a900460ff16905085565b6000600160008473ffffffffffffffffffffffffffffffffffffffff1673ffffffffffffffffffffffffffffffffffffffff168152602001908152602001600020600083815260200190815260200160002080549050905060008111610a10576040517f08c379a0000000000000000000000000000000000000000000000000000000008152600401610a079061204a565b60405180910390fd5b6000600160008573ffffffffffffffffffffffffffffffffffffffff1673ffffffffffffffffffffffffffffffffffffffff1681526020019081526020016000206000848152602001908152602001600020600183610a6f9190611de9565b81548110610a8057610a7f611e1d565b5b906000526020600020906004020160030160009054906101000a900473ffffffffffffffffffffffffffffffffffffffff1690503373ffffffffffffffffffffffffffffffffffffffff168173ffffffffffffffffffffffffffffffffffffffff1614610b22576040517f08c379a0000000000000000000000000000000000000000000000000000000008152600401610b19906120b6565b60405180910390fd5b6000600160008673ffffffffffffffffffffffffffffffffffffffff1673ffffffffffffffffffffffffffffffffffffffff1681526020019081526020016000206000858152602001908152602001600020600184610b819190611de9565b81548110610b9257610b91611e1d565b5b906000526020600020906004020160030160149054906101000a900460ff1690506000151581151514610bfa576040517f08c379a0000000000000000000000000000000000000000000000000000000008152600401610bf190612122565b60405180910390fd5b60018060008773ffffffffffffffffffffffffffffffffffffffff1673ffffffffffffffffffffffffffffffffffffffff1681526020019081526020016000206000868152602001908152602001600020600185610c589190611de9565b81548110610c6957610c68611e1d565b5b906000526020600020906004020160030160146101000a81548160ff0219169083151502179055503373ffffffffffffffffffffffffffffffffffffffff167f35abf1a26249dc853b24d7ea8a29906c9555acc75c27b856f0b3fa21c4ac80c18686600160008a73ffffffffffffffffffffffffffffffffffffffff1673ffffffffffffffffffffffffffffffffffffffff1681526020019081526020016000206000898152602001908152602001600020600188610d289190611de9565b81548110610d3957610d38611e1d565b5b906000526020600020906004020160030160149054906101000a900460ff16604051610d6793929190612142565b60405180910390a25050505050565b6000600360003373ffffffffffffffffffffffffffffffffffffffff1673ffffffffffffffffffffffffffffffffffffffff16815260200190815260200160002060008481526020019081526020016000208054905090506000805b82811015610f6c578573ffffffffffffffffffffffffffffffffffffffff16600360003373ffffffffffffffffffffffffffffffffffffffff1673ffffffffffffffffffffffffffffffffffffffff16815260200190815260200160002060008781526020019081526020016000208281548110610e5357610e52611e1d565b5b9060005260206000200160009054906101000a900473ffffffffffffffffffffffffffffffffffffffff1673ffffffffffffffffffffffffffffffffffffffff161415610f595760019150600015158415151415610f58576000600360003373ffffffffffffffffffffffffffffffffffffffff1673ffffffffffffffffffffffffffffffffffffffff16815260200190815260200160002060008781526020019081526020016000208281548110610f0f57610f0e611e1d565b5b9060005260206000200160006101000a81548173ffffffffffffffffffffffffffffffffffffffff021916908373ffffffffffffffffffffffffffffffffffffffff1602179055505b5b8080610f6490612179565b915050610dd2565b5060001515811515148015610f85575060011515831515145b1561103c57600360003373ffffffffffffffffffffffffffffffffffffffff1673ffffffffffffffffffffffffffffffffffffffff1681526020019081526020016000206000858152602001908152602001600020859080600181540180825580915050600190039060005260206000200160009091909190916101000a81548173ffffffffffffffffffffffffffffffffffffffff021916908373ffffffffffffffffffffffffffffffffffffffff1602179055505b82600260003373ffffffffffffffffffffffffffffffffffffffff1673ffffffffffffffffffffffffffffffffffffffff16815260200190815260200160002060008773ffffffffffffffffffffffffffffffffffffffff1673ffffffffffffffffffffffffffffffffffffffff168152602001908152602001600020600086815260200190815260200160002060006101000a81548160ff0219169083151502179055503373ffffffffffffffffffffffffffffffffffffffff167f35abf1a26249dc853b24d7ea8a29906c9555acc75c27b856f0b3fa21c4ac80c18686600260003373ffffffffffffffffffffffffffffffffffffffff1673ffffffffffffffffffffffffffffffffffffffff16815260200190815260200160002060008a73ffffffffffffffffffffffffffffffffffffffff1673ffffffffffffffffffffffffffffffffffffffff168152602001908152602001600020600089815260200190815260200160002060009054906101000a900460ff166040516111c593929190612142565b60405180910390a25050505050565b6060600160008473ffffffffffffffffffffffffffffffffffffffff1673ffffffffffffffffffffffffffffffffffffffff1681526020019081526020016000206000838152602001908152602001600020805480602002602001604051908101604052809291908181526020016000905b8282101561130757838290600052602060002090600402016040518060a00160405290816000820154815260200160018201548152602001600282015481526020016003820160009054906101000a900473ffffffffffffffffffffffffffffffffffffffff1673ffffffffffffffffffffffffffffffffffffffff1673ffffffffffffffffffffffffffffffffffffffff1681526020016003820160149054906101000a900460ff16151515158152505081526020019060010190611246565b50505050905092915050565b600080600160008673ffffffffffffffffffffffffffffffffffffffff1673ffffffffffffffffffffffffffffffffffffffff16815260200190815260200160002060008581526020019081526020016000208054905090506001831015801561137d5750808311155b6113bc576040517f08c379a00000000000000000000000000000000000000000000000000000000081526004016113b39061204a565b60405180910390fd5b600160008673ffffffffffffffffffffffffffffffffffffffff1673ffffffffffffffffffffffffffffffffffffffff16815260200190815260200160002060008581526020019081526020016000206001846114199190611de9565b8154811061142a57611429611e1d565b5b9060005260206000209060040201600101549150509392505050565b60008054906101000a900473ffffffffffffffffffffffffffffffffffffffff1681565b6060600360008473ffffffffffffffffffffffffffffffffffffffff1673ffffffffffffffffffffffffffffffffffffffff168152602001908152602001600020600083815260200190815260200160002080548060200260200160405190810160405280929190818152602001828054801561153c57602002820191906000526020600020905b8160009054906101000a900473ffffffffffffffffffffffffffffffffffffffff1673ffffffffffffffffffffffffffffffffffffffff16815260200190600101908083116114f2575b5050505050905092915050565b600080600160008673ffffffffffffffffffffffffffffffffffffffff1673ffffffffffffffffffffffffffffffffffffffff168152602001908152602001600020600085815260200190815260200160002080549050905060008114156115b557600091505061163b565b82600160008773ffffffffffffffffffffffffffffffffffffffff1673ffffffffffffffffffffffffffffffffffffffff16815260200190815260200160002060008681526020019081526020016000206001836116139190611de9565b8154811061162457611623611e1d565b5b906000526020600020906004020160010154149150505b9392505050565b6000600160008473ffffffffffffffffffffffffffffffffffffffff1673ffffffffffffffffffffffffffffffffffffffff168152602001908152602001600020600083815260200190815260200160002080549050905092915050565b6002602052826000526040600020602052816000526040600020602052806000526040600020600092509250509054906101000a900460ff1681565b600080fd5b600073ffffffffffffffffffffffffffffffffffffffff82169050919050565b600061170c826116e1565b9050919050565b61171c81611701565b811461172757600080fd5b50565b60008135905061173981611713565b92915050565b6000819050919050565b6117528161173f565b811461175d57600080fd5b50565b60008135905061176f81611749565b92915050565b6000806040838503121561178c5761178b6116dc565b5b600061179a8582860161172a565b92505060206117ab85828601611760565b9150509250929050565b60008115159050919050565b6117ca816117b5565b82525050565b60006020820190506117e560008301846117c1565b92915050565b6000819050919050565b6117fe816117eb565b811461180957600080fd5b50565b60008135905061181b816117f5565b92915050565b60008060006060848603121561183a576118396116dc565b5b60006118488682870161172a565b935050602061185986828701611760565b925050604061186a8682870161180c565b9150509250925092565b61187d81611701565b82525050565b60006020820190506118986000830184611874565b92915050565b600080600080608085870312156118b8576118b76116dc565b5b60006118c687828801611760565b94505060206118d787828801611760565b93505060406118e88782880161172a565b92505060606118f98782880161172a565b91505092959194509250565b61190e8161173f565b82525050565b61191d816117eb565b82525050565b600060a0820190506119386000830188611905565b6119456020830187611905565b6119526040830186611914565b61195f6060830185611874565b61196c60808301846117c1565b9695505050505050565b61197f816117b5565b811461198a57600080fd5b50565b60008135905061199c81611976565b92915050565b6000806000606084860312156119bb576119ba6116dc565b5b60006119c98682870161172a565b93505060206119da86828701611760565b92505060406119eb8682870161198d565b9150509250925092565b600081519050919050565b600082825260208201905092915050565b6000819050602082019050919050565b611a2a8161173f565b82525050565b611a39816117eb565b82525050565b611a4881611701565b82525050565b611a57816117b5565b82525050565b60a082016000820151611a736000850182611a21565b506020820151611a866020850182611a21565b506040820151611a996040850182611a30565b506060820151611aac6060850182611a3f565b506080820151611abf6080850182611a4e565b50505050565b6000611ad18383611a5d565b60a08301905092915050565b6000602082019050919050565b6000611af5826119f5565b611aff8185611a00565b9350611b0a83611a11565b8060005b83811015611b3b578151611b228882611ac5565b9750611b2d83611add565b925050600181019050611b0e565b5085935050505092915050565b60006020820190508181036000830152611b628184611aea565b905092915050565b6000602082019050611b7f6000830184611905565b92915050565b600081519050919050565b600082825260208201905092915050565b6000819050602082019050919050565b6000611bbd8383611a3f565b60208301905092915050565b6000602082019050919050565b6000611be182611b85565b611beb8185611b90565b9350611bf683611ba1565b8060005b83811015611c27578151611c0e8882611bb1565b9750611c1983611bc9565b925050600181019050611bfa565b5085935050505092915050565b60006020820190508181036000830152611c4e8184611bd6565b905092915050565b600080600060608486031215611c6f57611c6e6116dc565b5b6000611c7d8682870161172a565b9350506020611c8e86828701611760565b9250506040611c9f86828701611760565b9150509250925092565b6000602082019050611cbe6000830184611914565b92915050565b600080600060608486031215611cdd57611cdc6116dc565b5b6000611ceb8682870161172a565b9350506020611cfc8682870161172a565b9250506040611d0d86828701611760565b9150509250925092565b600082825260208201905092915050565b7f596f7520646f2774206861766520746865207065726d697373696f6e20746f2060008201527f75706461746520746869732066696c652e000000000000000000000000000000602082015250565b6000611d84603183611d17565b9150611d8f82611d28565b604082019050919050565b60006020820190508181036000830152611db381611d77565b9050919050565b7f4e487b7100000000000000000000000000000000000000000000000000000000600052601160045260246000fd5b6000611df4826117eb565b9150611dff836117eb565b925082821015611e1257611e11611dba565b5b828203905092915050565b7f4e487b7100000000000000000000000000000000000000000000000000000000600052603260045260246000fd5b60008160001c9050919050565b6000819050919050565b6000611e76611e7183611e4c565b611e59565b9050919050565b6000819050919050565b6000611e9a611e9583611e4c565b611e7d565b9050919050565b600073ffffffffffffffffffffffffffffffffffffffff82169050919050565b6000611ed4611ecf83611e4c565b611ea1565b9050919050565b60008160a01c9050919050565b600060ff82169050919050565b6000611f08611f0383611edb565b611ee8565b9050919050565b60a082016000808301549050611f2481611e63565b611f316000860182611a21565b5060018301549050611f4281611e63565b611f4f6020860182611a21565b5060028301549050611f6081611e87565b611f6d6040860182611a30565b5060038301549050611f7e81611ec1565b611f8b6060860182611a3f565b50611f9581611ef5565b611fa26080860182611a4e565b5050505050565b600061012082019050611fbf6000830188611874565b611fcc6020830187611f0f565b611fd960c0830186611914565b611fe660e0830185611874565b611ff46101008301846117c1565b9695505050505050565b7f646f6573206e6f74206578697374000000000000000000000000000000000000600082015250565b6000612034600e83611d17565b915061203f82611ffe565b602082019050919050565b6000602082019050818103600083015261206381612027565b9050919050565b7f417070726f76657220697320646966666572656e740000000000000000000000600082015250565b60006120a0601583611d17565b91506120ab8261206a565b602082019050919050565b600060208201905081810360008301526120cf81612093565b9050919050565b7f596f752061726520616c726561647920617070726f7665640000000000000000600082015250565b600061210c601883611d17565b9150612117826120d6565b602082019050919050565b6000602082019050818103600083015261213b816120ff565b9050919050565b60006060820190506121576000830186611874565b6121646020830185611905565b61217160408301846117c1565b949350505050565b6000612184826117eb565b91507fffffffffffffffffffffffffffffffffffffffffffffffffffffffffffffffff8214156121b7576121b6611dba565b5b60018201905091905056fea2646970667358221220e1c6ea711e46b658f4042ee1fd0cc599a8d24fb245bf447940e4bff2a6cbaa4f64736f6c63430008090033",
  "linkReferences": {},
  "deployedLinkReferences": {}
}